{
  "contractName": "Auction",
  "abi": [
    {
      "constant": true,
      "inputs": [],
      "name": "auctionEnd",
      "outputs": [
        {
          "name": "",
          "type": "uint256"
        }
      ],
      "payable": false,
      "stateMutability": "view",
      "type": "function"
    },
    {
      "constant": true,
      "inputs": [],
      "name": "beneficiary",
      "outputs": [
        {
          "name": "remainingTokens",
          "type": "uint256"
        },
        {
          "name": "personId",
          "type": "uint256"
        },
        {
          "name": "addr",
          "type": "address"
        }
      ],
      "payable": false,
      "stateMutability": "view",
      "type": "function"
    },
    {
      "constant": true,
      "inputs": [],
      "name": "winners",
      "outputs": [
        {
          "name": "",
          "type": "address"
        }
      ],
      "payable": false,
      "stateMutability": "view",
      "type": "function"
    },
    {
      "inputs": [
        {
          "name": "_biddingTime",
          "type": "uint256"
        }
      ],
      "payable": true,
      "stateMutability": "payable",
      "type": "constructor"
    },
    {
      "constant": false,
      "inputs": [],
      "name": "register",
      "outputs": [],
      "payable": true,
      "stateMutability": "payable",
      "type": "function"
    },
    {
      "constant": false,
      "inputs": [
        {
          "name": "_count",
          "type": "uint256"
        }
      ],
      "name": "bid",
      "outputs": [],
      "payable": true,
      "stateMutability": "payable",
      "type": "function"
    },
    {
      "constant": false,
      "inputs": [],
      "name": "withdraw",
      "outputs": [
        {
          "name": "",
          "type": "uint256"
        }
      ],
      "payable": false,
      "stateMutability": "nonpayable",
      "type": "function"
    },
    {
      "constant": false,
      "inputs": [],
      "name": "auctionClose",
      "outputs": [
        {
          "name": "",
          "type": "address"
        }
      ],
      "payable": false,
      "stateMutability": "nonpayable",
      "type": "function"
    },
    {
      "constant": true,
      "inputs": [
        {
          "name": "id",
          "type": "uint256"
        }
      ],
      "name": "getPersonDetails",
      "outputs": [
        {
          "name": "",
          "type": "uint256"
        },
        {
          "name": "",
          "type": "uint256"
        },
        {
          "name": "",
          "type": "address"
        }
      ],
      "payable": false,
      "stateMutability": "view",
      "type": "function"
    }
  ],
  "bytecode": "0x60806040526000601a5560405160208061115c833981018060405281019080805190602001909291905050506100336100c4565b33601360020160006101000a81548173ffffffffffffffffffffffffffffffffffffffff021916908373ffffffffffffffffffffffffffffffffffffffff16021790555081420160168190555060408051908101604052806000815260200182815250600d600082015181600001556020820151816001019060046100b99291906100e7565b50905050505061014c565b608060405190810160405280600490602082028038833980820191505090505090565b8260048101928215610116579160200282015b828111156101155782518255916020019190600101906100fa565b5b5090506101239190610127565b5090565b61014991905b8082111561014557600081600090555060010161012d565b5090565b90565b6110018061015b6000396000f30060806040526004361061008e576000357c0100000000000000000000000000000000000000000000000000000000900463ffffffff16806319c2a5b5146100935780631aa3a008146100ea5780632a24f46c146100f457806338af3eed1461011f5780633ccfd60b14610184578063454a2ab3146101af57806360981705146101cf578063a487bcd81461024a575b600080fd5b34801561009f57600080fd5b506100a86102a1565b604051808273ffffffffffffffffffffffffffffffffffffffff1673ffffffffffffffffffffffffffffffffffffffff16815260200191505060405180910390f35b6100f26103b7565b005b34801561010057600080fd5b5061010961064a565b6040518082815260200191505060405180910390f35b34801561012b57600080fd5b50610134610650565b604051808481526020018381526020018273ffffffffffffffffffffffffffffffffffffffff1673ffffffffffffffffffffffffffffffffffffffff168152602001935050505060405180910390f35b34801561019057600080fd5b50610199610688565b6040518082815260200191505060405180910390f35b6101cd60048036038101908080359060200190929190505050610925565b005b3480156101db57600080fd5b506101fa60048036038101908080359060200190929190505050610b70565b604051808481526020018381526020018273ffffffffffffffffffffffffffffffffffffffff1673ffffffffffffffffffffffffffffffffffffffff168152602001935050505060405180910390f35b34801561025657600080fd5b5061025f610be7565b604051808273ffffffffffffffffffffffffffffffffffffffff1673ffffffffffffffffffffffffffffffffffffffff16815260200191505060405180910390f35b600033601360020160009054906101000a900473ffffffffffffffffffffffffffffffffffffffff1673ffffffffffffffffffffffffffffffffffffffff168173ffffffffffffffffffffffffffffffffffffffff1614151561030357600080fd5b601654421015151561031457600080fd5b601b60009054906101000a900460ff1615151561033057600080fd5b6001601b60006101000a81548160ff021916908315150217905550610353610c0d565b601b60016101000a81548160ff021916908315150217905550601b60019054906101000a900460ff161561038e576017546013600001819055505b601260009054906101000a900473ffffffffffffffffffffffffffffffffffffffff1691505090565b60008033601360020160009054906101000a900473ffffffffffffffffffffffffffffffffffffffff1673ffffffffffffffffffffffffffffffffffffffff168173ffffffffffffffffffffffffffffffffffffffff161415151561041b57600080fd5b601654421115151561042c57600080fd5b60009250600091505b601a548210156104bf573373ffffffffffffffffffffffffffffffffffffffff1660018360048110151561046557fe5b6003020160020160009054906101000a900473ffffffffffffffffffffffffffffffffffffffff1673ffffffffffffffffffffffffffffffffffffffff1614156104b25782806001019350505b8180600101925050610435565b6000831415156104ce57600080fd5b601a546001601a546004811015156104e257fe5b6003020160010181905550336001601a546004811015156104ff57fe5b6003020160020160006101000a81548173ffffffffffffffffffffffffffffffffffffffff021916908373ffffffffffffffffffffffffffffffffffffffff16021790555060056001601a5460048110151561055757fe5b60030201600001819055506001601a5460048110151561057357fe5b600302016000803373ffffffffffffffffffffffffffffffffffffffff1673ffffffffffffffffffffffffffffffffffffffff16815260200190815260200160002060008201548160000155600182015481600101556002820160009054906101000a900473ffffffffffffffffffffffffffffffffffffffff168160020160006101000a81548173ffffffffffffffffffffffffffffffffffffffff021916908373ffffffffffffffffffffffffffffffffffffffff160217905550905050601a60008154809291906001019190505550505050565b60165481565b60138060000154908060010154908060020160009054906101000a900473ffffffffffffffffffffffffffffffffffffffff16905083565b60008033601360020160009054906101000a900473ffffffffffffffffffffffffffffffffffffffff1673ffffffffffffffffffffffffffffffffffffffff168173ffffffffffffffffffffffffffffffffffffffff16141515156106ec57600080fd5b60165442111515156106fd57600080fd5b601960003373ffffffffffffffffffffffffffffffffffffffff1673ffffffffffffffffffffffffffffffffffffffff16815260200190815260200160002054915060008211156108dc576000601960003373ffffffffffffffffffffffffffffffffffffffff1673ffffffffffffffffffffffffffffffffffffffff1681526020019081526020016000208190555081600d6001016000803373ffffffffffffffffffffffffffffffffffffffff1673ffffffffffffffffffffffffffffffffffffffff168152602001908152602001600020600101546004811015156107e157fe5b0160008282540392505081905550816000803373ffffffffffffffffffffffffffffffffffffffff1673ffffffffffffffffffffffffffffffffffffffff168152602001908152602001600020600001600082825401925050819055506000803373ffffffffffffffffffffffffffffffffffffffff1673ffffffffffffffffffffffffffffffffffffffff1681526020019081526020016000206000015460016000803373ffffffffffffffffffffffffffffffffffffffff1673ffffffffffffffffffffffffffffffffffffffff168152602001908152602001600020600101546004811015156108d057fe5b60030201600001819055505b6000803373ffffffffffffffffffffffffffffffffffffffff1673ffffffffffffffffffffffffffffffffffffffff168152602001908152602001600020600001549250505090565b601654421115151561093657600080fd5b806000803373ffffffffffffffffffffffffffffffffffffffff1673ffffffffffffffffffffffffffffffffffffffff1681526020019081526020016000206000015410806109c6575060008060003373ffffffffffffffffffffffffffffffffffffffff1673ffffffffffffffffffffffffffffffffffffffff16815260200190815260200160002060000154145b156109d057600080fd5b600081141515610a285780601960003373ffffffffffffffffffffffffffffffffffffffff1673ffffffffffffffffffffffffffffffffffffffff168152602001908152602001600020600082825401925050819055505b806000803373ffffffffffffffffffffffffffffffffffffffff1673ffffffffffffffffffffffffffffffffffffffff168152602001908152602001600020600001600082825403925050819055506000803373ffffffffffffffffffffffffffffffffffffffff1673ffffffffffffffffffffffffffffffffffffffff1681526020019081526020016000206000015460016000803373ffffffffffffffffffffffffffffffffffffffff1673ffffffffffffffffffffffffffffffffffffffff16815260200190815260200160002060010154600481101515610b0957fe5b600302016000018190555080600d6001016000803373ffffffffffffffffffffffffffffffffffffffff1673ffffffffffffffffffffffffffffffffffffffff16815260200190815260200160002060010154600481101515610b6857fe5b018190555050565b6000806000600184600481101515610b8457fe5b6003020160000154600185600481101515610b9b57fe5b6003020160010154600186600481101515610bb257fe5b6003020160020160009054906101000a900473ffffffffffffffffffffffffffffffffffffffff169250925092509193909250565b601260009054906101000a900473ffffffffffffffffffffffffffffffffffffffff1681565b6000806000600d6001016000600481101515610c2557fe5b015460178190555060016000600481101515610c3d57fe5b6003020160020160009054906101000a900473ffffffffffffffffffffffffffffffffffffffff16601860006101000a81548173ffffffffffffffffffffffffffffffffffffffff021916908373ffffffffffffffffffffffffffffffffffffffff160217905550600191505b601a54821015610d7b57610cd3601754600d60010184600481101515610ccc57fe5b0154610fbc565b601781905550600d60010182600481101515610ceb57fe5b01546017541415610d6e57600182600481101515610d0557fe5b6003020160020160009054906101000a900473ffffffffffffffffffffffffffffffffffffffff16601860006101000a81548173ffffffffffffffffffffffffffffffffffffffff021916908373ffffffffffffffffffffffffffffffffffffffff1602179055505b8180600101925050610caa565b601860009054906101000a900473ffffffffffffffffffffffffffffffffffffffff16601260006101000a81548173ffffffffffffffffffffffffffffffffffffffff021916908373ffffffffffffffffffffffffffffffffffffffff160217905550600090505b601a54811015610fb357601260009054906101000a900473ffffffffffffffffffffffffffffffffffffffff1673ffffffffffffffffffffffffffffffffffffffff16600182600481101515610e3557fe5b6003020160020160009054906101000a900473ffffffffffffffffffffffffffffffffffffffff1673ffffffffffffffffffffffffffffffffffffffff16141515610fa65760196000600183600481101515610e8d57fe5b6003020160020160009054906101000a900473ffffffffffffffffffffffffffffffffffffffff1673ffffffffffffffffffffffffffffffffffffffff1673ffffffffffffffffffffffffffffffffffffffff16815260200190815260200160002054600182600481101515610eff57fe5b6003020160000160008282540192505081905550600181600481101515610f2257fe5b6003020160000154600080600184600481101515610f3c57fe5b6003020160020160009054906101000a900473ffffffffffffffffffffffffffffffffffffffff1673ffffffffffffffffffffffffffffffffffffffff1673ffffffffffffffffffffffffffffffffffffffff168152602001908152602001600020600001819055505b8080600101915050610de3565b60019250505090565b6000818311610fcb5781610fcd565b825b9050929150505600a165627a7a72305820e8ccc89690975b33ad18eb6d127204658723d7f5afa4c812a4c0b995e5eef9640029",
  "source": "pragma solidity ^0.4.24;\r\n\r\n\r\n\r\ncontract Auction {\r\n\r\n\r\n\r\n     struct Item {\r\n\r\n        uint itemId; // id of the item\r\n\r\n        uint[4] itemTokens; //tokens bid in favor of the item\r\n\r\n    }\r\n\r\n\r\n\r\n    struct Person {\r\n\r\n        uint remainingTokens; // tokens remaining with bidder\r\n\r\n        uint personId; // it serves as tokenId as well\r\n\r\n        address addr;//address of the bidder\r\n\r\n    }\r\n\r\n \r\n\r\n    mapping(address => Person) tokenDetails; //address to person\r\n\r\n    Person [4] bidders;//Array containing 4 person objects\r\n\r\n\r\n\r\n    Item items;//item object\r\n\r\n    address public winners;//address of winner\r\n\r\n    Person public beneficiary;//owner of the smart contract\r\n\r\n    \r\n\r\n    uint public auctionEnd;\r\n\r\n    uint topBid;\r\n\r\n    address topBidders;\r\n\r\n    mapping(address => uint) returnsPending; // # tokens pending to be returned to each person\r\n\r\n    uint bidderCount=0;//counter\r\n\r\n    \r\n\r\n    bool auctionComplete;\r\n\r\n    bool winnersDeclared;\r\n\r\n    \r\n\r\n    modifier onlyowner(address _adr){ require(_adr == beneficiary.addr); _; }\r\n\r\n \r\n\r\n    modifier onlybidders(address _addr){ require(_addr != beneficiary.addr); _; }\r\n\r\n    //functions\r\n\r\n    constructor(uint _biddingTime) public payable{ //constructor\r\n\r\n\r\n\r\n        //Part 1 Task 1. Initialize beneficiary with address of smart contract?s owner \r\n\r\n        beneficiary.addr = msg.sender;\r\n\r\n        auctionEnd = now + _biddingTime;\r\n\r\n        //Hint. In the constructor,\"msg.sender\" is the address of the owner.\r\n\r\n\r\n\r\n        uint[4] memory emptyArray;\r\n\r\n        items = Item({itemId:0,itemTokens:emptyArray});\r\n\r\n        //** End code here**/\r\n\r\n    }\r\n\r\n\r\n\r\n    function register() public payable onlybidders(msg.sender) {\r\n\r\n        \r\n\r\n        require(now <= auctionEnd);\r\n\r\n        uint newRegister=0;\r\n\r\n        for(uint b=0; b<bidderCount; b++) {\r\n\r\n            if (bidders[b].addr == msg.sender) newRegister++;\r\n\r\n        }\r\n\r\n        \r\n\r\n        require(newRegister == 0);\r\n\r\n        bidders[bidderCount].personId = bidderCount;\r\n\r\n        bidders[bidderCount].addr = msg.sender;\r\n\r\n\r\n\r\n        //Part 1 Task 3. Initialize the address of the bidder\r\n\r\n        /*Hint. Here the bidders[bidderCount].addr should be initialized with address of the registrant.*/\r\n\r\n        bidders[bidderCount].remainingTokens = 5; // only 5 tokens\r\n\r\n        tokenDetails[msg.sender]=bidders[bidderCount];\r\n\r\n        bidderCount++;\r\n\r\n    }\r\n\r\n\r\n\r\n    function bid(uint _count) public payable {\r\n\r\n\r\n\r\n        require(now <= auctionEnd);\r\n\r\n        /*\r\n\r\n        Two conditions below:\r\n\r\n        1. If the number of tokens remaining with the bidder is <\r\n\r\n            count of tokens bid, revert\r\n\r\n        2. If there are no tokens remaining with the bidder,\r\n\r\n            revert.\r\n\r\n        Hint: \"tokenDetails[msg.sender].remainingTokens\" gives the\r\n\r\n        details of the number of tokens remaining with the bidder.\r\n\r\n        */\r\n\r\n \r\n\r\n        if (tokenDetails[msg.sender].remainingTokens < _count || tokenDetails[msg.sender].remainingTokens == 0) revert();\r\n\r\n        if(_count !=0) returnsPending[msg.sender] += _count;\r\n\r\n\r\n\r\n        /*Part 1 Task 5. Decrement the remainingTokens by the number of tokens bid\r\n\r\n        Hint. \"tokenDetails[msg.sender].remainingTokens\" should be decremented by \"_count\". */\r\n\r\n\r\n\r\n        tokenDetails[msg.sender].remainingTokens -= _count;\r\n\r\n        bidders[tokenDetails[msg.sender].personId].remainingTokens=\r\n\r\n        tokenDetails[msg.sender].remainingTokens; //updating the same balance in bidders map.\r\n\r\n        \r\n\r\n        items.itemTokens[tokenDetails[msg.sender].personId]= _count;\r\n\r\n    }\r\n\r\n\r\n\r\n    function max(uint a, uint b) private pure returns (uint) {\r\n\r\n        return a > b ? a : b;\r\n\r\n    }\r\n\r\n\r\n\r\n    function revealWinners() private returns (bool)  {\r\n\r\n\r\n\r\n        topBid = items.itemTokens[0];\r\n\r\n        topBidders = bidders[0].addr;\r\n\r\n        for(uint i=1; i<bidderCount; i++) {\r\n\r\n            topBid = max(topBid,items.itemTokens[i]);\r\n\r\n            if(topBid == items.itemTokens[i]) topBidders = bidders[i].addr;\r\n\r\n        }\r\n\r\n        \r\n\r\n        winners = topBidders;\r\n\r\n        for(uint t=0; t<bidderCount; t++) {\r\n\r\n            if (bidders[t].addr != winners) {\r\n\r\n                bidders[t].remainingTokens += returnsPending[bidders[t].addr];\r\n\r\n                tokenDetails[bidders[t].addr].remainingTokens = bidders[t].remainingTokens;\r\n\r\n            }\r\n\r\n        }\r\n\r\n        return true;\r\n\r\n    }\r\n\r\n \r\n\r\n    function withdraw() public onlybidders(msg.sender) returns (uint){\r\n\r\n        \r\n\r\n        require(now <= auctionEnd);\r\n\r\n        uint bidAmount = returnsPending[msg.sender];\r\n\r\n        if(bidAmount>0){\r\n\r\n            returnsPending[msg.sender]=0;\r\n\r\n            items.itemTokens[tokenDetails[msg.sender].personId] -= bidAmount;\r\n\r\n            tokenDetails[msg.sender].remainingTokens += bidAmount;\r\n\r\n            bidders[tokenDetails[msg.sender].personId].remainingTokens = tokenDetails[msg.sender].remainingTokens;\r\n\r\n            }\r\n\r\n        return (tokenDetails[msg.sender].remainingTokens);\r\n\r\n    }\r\n\r\n\r\n\r\n    function auctionClose() public onlyowner(msg.sender) returns (address) { //Have to be called by beneficiary after auction time is completed\r\n\r\n        \r\n\r\n        //1. conditions\r\n\r\n        require(now >= auctionEnd); //auction did not end yet\r\n\r\n        require(!auctionComplete); //function shouldn't already been called\r\n\r\n        \r\n\r\n        //2. Effects\r\n\r\n        auctionComplete = true;\r\n\r\n        winnersDeclared = revealWinners();\r\n\r\n        \r\n\r\n        //3. Interactions\r\n\r\n        if(winnersDeclared) beneficiary.remainingTokens = topBid;\r\n\r\n\t\r\n\r\n\treturn winners;\r\n\r\n    }\r\n\r\n\r\n\r\n    function getPersonDetails(uint id) public view returns(uint,uint,address){\r\n\r\n        return (bidders[id].remainingTokens,bidders[id].personId,bidders[id].addr);\r\n\r\n    }\r\n\r\n\r\n\r\n}\r\n",
  "sourcePath": "/home/monica/blockchain/E-Auction-DApp/contracts/auction.sol",
  "compiler": {
    "name": "solc",
    "version": "0.4.24+commit.e67f0147.Emscripten.clang"
  },
  "schemaVersion": "2.0.0",
  "updatedAt": "2020-03-03T12:44:42.271Z"
}